{
  "contractName": "SolnSquareVerifier",
  "abi": [
    {
      "inputs": [
        {
          "internalType": "address",
          "name": "verifierContract",
          "type": "address"
        }
      ],
      "payable": false,
      "stateMutability": "nonpayable",
      "type": "constructor"
    },
    {
      "anonymous": false,
      "inputs": [
        {
          "indexed": true,
          "internalType": "address",
          "name": "owner",
          "type": "address"
        },
        {
          "indexed": true,
          "internalType": "address",
          "name": "approved",
          "type": "address"
        },
        {
          "indexed": true,
          "internalType": "uint256",
          "name": "tokenId",
          "type": "uint256"
        }
      ],
      "name": "Approval",
      "type": "event"
    },
    {
      "anonymous": false,
      "inputs": [
        {
          "indexed": true,
          "internalType": "address",
          "name": "owner",
          "type": "address"
        },
        {
          "indexed": true,
          "internalType": "address",
          "name": "operator",
          "type": "address"
        },
        {
          "indexed": false,
          "internalType": "bool",
          "name": "approved",
          "type": "bool"
        }
      ],
      "name": "ApprovalForAll",
      "type": "event"
    },
    {
      "anonymous": false,
      "inputs": [
        {
          "indexed": true,
          "internalType": "address",
          "name": "caller",
          "type": "address"
        }
      ],
      "name": "Paused",
      "type": "event"
    },
    {
      "anonymous": false,
      "inputs": [
        {
          "indexed": false,
          "internalType": "address",
          "name": "to",
          "type": "address"
        },
        {
          "indexed": false,
          "internalType": "uint256",
          "name": "tokenId",
          "type": "uint256"
        }
      ],
      "name": "SolutionAdded",
      "type": "event"
    },
    {
      "anonymous": false,
      "inputs": [
        {
          "indexed": true,
          "internalType": "address",
          "name": "from",
          "type": "address"
        },
        {
          "indexed": true,
          "internalType": "address",
          "name": "to",
          "type": "address"
        },
        {
          "indexed": true,
          "internalType": "uint256",
          "name": "tokenId",
          "type": "uint256"
        }
      ],
      "name": "Transfer",
      "type": "event"
    },
    {
      "anonymous": false,
      "inputs": [
        {
          "indexed": true,
          "internalType": "address",
          "name": "oldOwner",
          "type": "address"
        },
        {
          "indexed": true,
          "internalType": "address",
          "name": "newOwner",
          "type": "address"
        }
      ],
      "name": "TransferOwnership",
      "type": "event"
    },
    {
      "anonymous": false,
      "inputs": [
        {
          "indexed": true,
          "internalType": "address",
          "name": "caller",
          "type": "address"
        }
      ],
      "name": "Unpaused",
      "type": "event"
    },
    {
      "constant": false,
      "inputs": [
        {
          "internalType": "bytes32",
          "name": "_myid",
          "type": "bytes32"
        },
        {
          "internalType": "string",
          "name": "_result",
          "type": "string"
        }
      ],
      "name": "__callback",
      "outputs": [],
      "payable": false,
      "stateMutability": "nonpayable",
      "type": "function"
    },
    {
      "constant": false,
      "inputs": [
        {
          "internalType": "bytes32",
          "name": "_myid",
          "type": "bytes32"
        },
        {
          "internalType": "string",
          "name": "_result",
          "type": "string"
        },
        {
          "internalType": "bytes",
          "name": "_proof",
          "type": "bytes"
        }
      ],
      "name": "__callback",
      "outputs": [],
      "payable": false,
      "stateMutability": "nonpayable",
      "type": "function"
    },
    {
      "constant": false,
      "inputs": [
        {
          "internalType": "address",
          "name": "to",
          "type": "address"
        },
        {
          "internalType": "uint256",
          "name": "tokenId",
          "type": "uint256"
        }
      ],
      "name": "approve",
      "outputs": [],
      "payable": false,
      "stateMutability": "nonpayable",
      "type": "function"
    },
    {
      "constant": true,
      "inputs": [
        {
          "internalType": "address",
          "name": "owner",
          "type": "address"
        }
      ],
      "name": "balanceOf",
      "outputs": [
        {
          "internalType": "uint256",
          "name": "",
          "type": "uint256"
        }
      ],
      "payable": false,
      "stateMutability": "view",
      "type": "function"
    },
    {
      "constant": true,
      "inputs": [
        {
          "internalType": "uint256",
          "name": "tokenId",
          "type": "uint256"
        }
      ],
      "name": "getApproved",
      "outputs": [
        {
          "internalType": "address",
          "name": "",
          "type": "address"
        }
      ],
      "payable": false,
      "stateMutability": "view",
      "type": "function"
    },
    {
      "constant": true,
      "inputs": [],
      "name": "getBaseTokenURI",
      "outputs": [
        {
          "internalType": "string",
          "name": "",
          "type": "string"
        }
      ],
      "payable": false,
      "stateMutability": "view",
      "type": "function"
    },
    {
      "constant": true,
      "inputs": [],
      "name": "getName",
      "outputs": [
        {
          "internalType": "string",
          "name": "",
          "type": "string"
        }
      ],
      "payable": false,
      "stateMutability": "view",
      "type": "function"
    },
    {
      "constant": true,
      "inputs": [],
      "name": "getSymbol",
      "outputs": [
        {
          "internalType": "string",
          "name": "",
          "type": "string"
        }
      ],
      "payable": false,
      "stateMutability": "view",
      "type": "function"
    },
    {
      "constant": true,
      "inputs": [
        {
          "internalType": "address",
          "name": "owner",
          "type": "address"
        },
        {
          "internalType": "address",
          "name": "operator",
          "type": "address"
        }
      ],
      "name": "isApprovedForAll",
      "outputs": [
        {
          "internalType": "bool",
          "name": "",
          "type": "bool"
        }
      ],
      "payable": false,
      "stateMutability": "view",
      "type": "function"
    },
    {
      "constant": false,
      "inputs": [
        {
          "internalType": "address",
          "name": "to",
          "type": "address"
        },
        {
          "internalType": "uint256",
          "name": "tokenId",
          "type": "uint256"
        }
      ],
      "name": "mint",
      "outputs": [
        {
          "internalType": "bool",
          "name": "",
          "type": "bool"
        }
      ],
      "payable": false,
      "stateMutability": "nonpayable",
      "type": "function"
    },
    {
      "constant": true,
      "inputs": [],
      "name": "owner",
      "outputs": [
        {
          "internalType": "address",
          "name": "",
          "type": "address"
        }
      ],
      "payable": false,
      "stateMutability": "view",
      "type": "function"
    },
    {
      "constant": true,
      "inputs": [
        {
          "internalType": "uint256",
          "name": "tokenId",
          "type": "uint256"
        }
      ],
      "name": "ownerOf",
      "outputs": [
        {
          "internalType": "address",
          "name": "",
          "type": "address"
        }
      ],
      "payable": false,
      "stateMutability": "view",
      "type": "function"
    },
    {
      "constant": false,
      "inputs": [
        {
          "internalType": "address",
          "name": "from",
          "type": "address"
        },
        {
          "internalType": "address",
          "name": "to",
          "type": "address"
        },
        {
          "internalType": "uint256",
          "name": "tokenId",
          "type": "uint256"
        }
      ],
      "name": "safeTransferFrom",
      "outputs": [],
      "payable": false,
      "stateMutability": "nonpayable",
      "type": "function"
    },
    {
      "constant": false,
      "inputs": [
        {
          "internalType": "address",
          "name": "from",
          "type": "address"
        },
        {
          "internalType": "address",
          "name": "to",
          "type": "address"
        },
        {
          "internalType": "uint256",
          "name": "tokenId",
          "type": "uint256"
        },
        {
          "internalType": "bytes",
          "name": "_data",
          "type": "bytes"
        }
      ],
      "name": "safeTransferFrom",
      "outputs": [],
      "payable": false,
      "stateMutability": "nonpayable",
      "type": "function"
    },
    {
      "constant": false,
      "inputs": [
        {
          "internalType": "address",
          "name": "to",
          "type": "address"
        },
        {
          "internalType": "bool",
          "name": "approved",
          "type": "bool"
        }
      ],
      "name": "setApprovalForAll",
      "outputs": [],
      "payable": false,
      "stateMutability": "nonpayable",
      "type": "function"
    },
    {
      "constant": false,
      "inputs": [
        {
          "internalType": "bool",
          "name": "paused",
          "type": "bool"
        }
      ],
      "name": "setPaused",
      "outputs": [],
      "payable": false,
      "stateMutability": "nonpayable",
      "type": "function"
    },
    {
      "constant": true,
      "inputs": [
        {
          "internalType": "bytes4",
          "name": "interfaceId",
          "type": "bytes4"
        }
      ],
      "name": "supportsInterface",
      "outputs": [
        {
          "internalType": "bool",
          "name": "",
          "type": "bool"
        }
      ],
      "payable": false,
      "stateMutability": "view",
      "type": "function"
    },
    {
      "constant": true,
      "inputs": [
        {
          "internalType": "uint256",
          "name": "index",
          "type": "uint256"
        }
      ],
      "name": "tokenByIndex",
      "outputs": [
        {
          "internalType": "uint256",
          "name": "",
          "type": "uint256"
        }
      ],
      "payable": false,
      "stateMutability": "view",
      "type": "function"
    },
    {
      "constant": true,
      "inputs": [
        {
          "internalType": "address",
          "name": "owner",
          "type": "address"
        },
        {
          "internalType": "uint256",
          "name": "index",
          "type": "uint256"
        }
      ],
      "name": "tokenOfOwnerByIndex",
      "outputs": [
        {
          "internalType": "uint256",
          "name": "",
          "type": "uint256"
        }
      ],
      "payable": false,
      "stateMutability": "view",
      "type": "function"
    },
    {
      "constant": true,
      "inputs": [
        {
          "internalType": "uint256",
          "name": "tokenId",
          "type": "uint256"
        }
      ],
      "name": "tokenURI",
      "outputs": [
        {
          "internalType": "string",
          "name": "",
          "type": "string"
        }
      ],
      "payable": false,
      "stateMutability": "view",
      "type": "function"
    },
    {
      "constant": true,
      "inputs": [],
      "name": "totalSupply",
      "outputs": [
        {
          "internalType": "uint256",
          "name": "",
          "type": "uint256"
        }
      ],
      "payable": false,
      "stateMutability": "view",
      "type": "function"
    },
    {
      "constant": false,
      "inputs": [
        {
          "internalType": "address",
          "name": "from",
          "type": "address"
        },
        {
          "internalType": "address",
          "name": "to",
          "type": "address"
        },
        {
          "internalType": "uint256",
          "name": "tokenId",
          "type": "uint256"
        }
      ],
      "name": "transferFrom",
      "outputs": [],
      "payable": false,
      "stateMutability": "nonpayable",
      "type": "function"
    },
    {
      "constant": false,
      "inputs": [
        {
          "internalType": "address",
          "name": "newOwner",
          "type": "address"
        }
      ],
      "name": "transferOwnership",
      "outputs": [],
      "payable": false,
      "stateMutability": "nonpayable",
      "type": "function"
    },
    {
      "constant": false,
      "inputs": [
        {
          "internalType": "address",
          "name": "to",
          "type": "address"
        },
        {
          "internalType": "uint256",
          "name": "tokenId",
          "type": "uint256"
        },
        {
          "internalType": "bytes32",
          "name": "key",
          "type": "bytes32"
        }
      ],
      "name": "addSolution",
      "outputs": [],
      "payable": false,
      "stateMutability": "nonpayable",
      "type": "function"
    },
    {
      "constant": false,
      "inputs": [
        {
          "internalType": "address",
          "name": "to",
          "type": "address"
        },
        {
          "internalType": "uint256",
          "name": "tokenId",
          "type": "uint256"
        },
        {
          "components": [
            {
              "components": [
                {
                  "internalType": "uint256",
                  "name": "X",
                  "type": "uint256"
                },
                {
                  "internalType": "uint256",
                  "name": "Y",
                  "type": "uint256"
                }
              ],
              "internalType": "struct Pairing.G1Point",
              "name": "a",
              "type": "tuple"
            },
            {
              "components": [
                {
                  "internalType": "uint256[2]",
                  "name": "X",
                  "type": "uint256[2]"
                },
                {
                  "internalType": "uint256[2]",
                  "name": "Y",
                  "type": "uint256[2]"
                }
              ],
              "internalType": "struct Pairing.G2Point",
              "name": "b",
              "type": "tuple"
            },
            {
              "components": [
                {
                  "internalType": "uint256",
                  "name": "X",
                  "type": "uint256"
                },
                {
                  "internalType": "uint256",
                  "name": "Y",
                  "type": "uint256"
                }
              ],
              "internalType": "struct Pairing.G1Point",
              "name": "c",
              "type": "tuple"
            }
          ],
          "internalType": "struct Verifier.Proof",
          "name": "proof",
          "type": "tuple"
        },
        {
          "internalType": "uint256[2]",
          "name": "input",
          "type": "uint256[2]"
        }
      ],
      "name": "mintNFT",
      "outputs": [],
      "payable": false,
      "stateMutability": "nonpayable",
      "type": "function"
    }
  ],
  "bytecode": "0x60806040523480156200001157600080fd5b5060405162003cb638038062003cb6833981810160405262000037919081019062000432565b6040518060400160405280600981526020017f546f6e6573204e465400000000000000000000000000000000000000000000008152506040518060400160405280600581526020017f544f4e45530000000000000000000000000000000000000000000000000000008152506040518060600160405280603f815260200162003c77603f9139336000806101000a81548173ffffffffffffffffffffffffffffffffffffffff021916908373ffffffffffffffffffffffffffffffffffffffff1602179055506000809054906101000a900473ffffffffffffffffffffffffffffffffffffffff1673ffffffffffffffffffffffffffffffffffffffff16600073ffffffffffffffffffffffffffffffffffffffff167f5c486528ec3e3f0ea91181cff8116f02bfa350e03b8b6f12e00765adbb5af85c60405160405180910390a360008060146101000a81548160ff0219169083151502179055503373ffffffffffffffffffffffffffffffffffffffff167f5db9ee0a495bf2e6ff9c91a7834c1ba4fdd244a5e8aa4e537bd38aeae4b073aa60405160405180910390a2620001ee6301ffc9a760e01b620002cc60201b60201c565b620002066380ac58cd60e01b620002cc60201b60201c565b6200021e63780e9d6360e01b620002cc60201b60201c565b82600f9080519060200190620002369291906200036c565b5081601090805190602001906200024f9291906200036c565b508060119080519060200190620002689291906200036c565b5062000281635b5e139f60e01b620002cc60201b60201c565b50505080601360006101000a81548173ffffffffffffffffffffffffffffffffffffffff021916908373ffffffffffffffffffffffffffffffffffffffff16021790555050620004ac565b63ffffffff60e01b817bffffffffffffffffffffffffffffffffffffffffffffffffffffffff191614156200030057600080fd5b6001806000837bffffffffffffffffffffffffffffffffffffffffffffffffffffffff19167bffffffffffffffffffffffffffffffffffffffffffffffffffffffff1916815260200190815260200160002060006101000a81548160ff02191690831515021790555050565b828054600181600116156101000203166002900490600052602060002090601f016020900481019282601f10620003af57805160ff1916838001178555620003e0565b82800160010185558215620003e0579182015b82811115620003df578251825591602001919060010190620003c2565b5b509050620003ef9190620003f3565b5090565b6200041891905b8082111562000414576000816000905550600101620003fa565b5090565b90565b6000815190506200042c8162000492565b92915050565b6000602082840312156200044557600080fd5b600062000455848285016200041b565b91505092915050565b60006200046b8262000472565b9050919050565b600073ffffffffffffffffffffffffffffffffffffffff82169050919050565b6200049d816200045e565b8114620004a957600080fd5b50565b6137bb80620004bc6000396000f3fe608060405234801561001057600080fd5b50600436106101735760003560e01c806340c10f19116100de5780638da5cb5b11610097578063bdc32be011610071578063bdc32be014610458578063c87b56dd14610476578063e985e9c5146104a6578063f2fde38b146104d657610173565b80638da5cb5b14610402578063a22cb46514610420578063b88d4fde1461043c57610173565b806340c10f191461030a57806342842e0e1461033a5780634f6ccce7146103565780636352211e1461038657806370a08231146103b657806374690502146103e657610173565b806318160ddd1161013057806318160ddd1461024c5780631fd960da1461026a57806323b872dd1461028657806327dc297e146102a25780632f745c59146102be57806338bbfa50146102ee57610173565b806301ffc9a714610178578063081812fc146101a8578063095ea7b3146101d857806315070401146101f457806316c38b3c1461021257806317d7de7c1461022e575b600080fd5b610192600480360361018d9190810190612c2a565b6104f2565b60405161019f91906132da565b60405180910390f35b6101c260048036036101bd9190810190612c7c565b61055a565b6040516101cf919061324a565b60405180910390f35b6101f260048036036101ed9190810190612a15565b610597565b005b6101fc610715565b60405161020991906132f5565b60405180910390f35b61022c60048036036102279190810190612b05565b6107b7565b005b610236610914565b60405161024391906132f5565b60405180910390f35b6102546109b6565b6040516102619190613442565b60405180910390f35b610284600480360361027f9190810190612aa0565b6109c3565b005b6102a0600480360361029b919081019061290f565b610ba0565b005b6102bc60048036036102b79190810190612b57565b610bc3565b005b6102d860048036036102d39190810190612a15565b610c06565b6040516102e59190613442565b60405180910390f35b61030860048036036103039190810190612bab565b610c79565b005b610324600480360361031f9190810190612a15565b610c7e565b60405161033191906132da565b60405180910390f35b610354600480360361034f919081019061290f565b610d2c565b005b610370600480360361036b9190810190612c7c565b610d4c565b60405161037d9190613442565b60405180910390f35b6103a0600480360361039b9190810190612c7c565b610d80565b6040516103ad919061324a565b60405180910390f35b6103d060048036036103cb91908101906128aa565b610dbd565b6040516103dd9190613442565b60405180910390f35b61040060048036036103fb9190810190612a51565b610e0d565b005b61040a610f73565b604051610417919061324a565b60405180910390f35b61043a600480360361043591908101906129d9565b610f9c565b005b6104566004803603610451919081019061295e565b6110d2565b005b6104606110f8565b60405161046d91906132f5565b60405180910390f35b610490600480360361048b9190810190612c7c565b61119a565b60405161049d91906132f5565b60405180910390f35b6104c060048036036104bb91908101906128d3565b611261565b6040516104cd91906132da565b60405180910390f35b6104f060048036036104eb91908101906128aa565b6112f5565b005b600060016000837bffffffffffffffffffffffffffffffffffffffffffffffffffffffff19167bffffffffffffffffffffffffffffffffffffffffffffffffffffffff1916815260200190815260200160002060009054906101000a900460ff169050919050565b60006003600083815260200190815260200160002060009054906101000a900473ffffffffffffffffffffffffffffffffffffffff169050919050565b60006105a282610d80565b90508073ffffffffffffffffffffffffffffffffffffffff168373ffffffffffffffffffffffffffffffffffffffff161415610613576040517f08c379a000000000000000000000000000000000000000000000000000000000815260040161060a90613397565b60405180910390fd5b8073ffffffffffffffffffffffffffffffffffffffff163373ffffffffffffffffffffffffffffffffffffffff16148061065a5750600115156106568233611261565b1515145b61066357600080fd5b826003600084815260200190815260200160002060006101000a81548173ffffffffffffffffffffffffffffffffffffffff021916908373ffffffffffffffffffffffffffffffffffffffff160217905550818373ffffffffffffffffffffffffffffffffffffffff168273ffffffffffffffffffffffffffffffffffffffff167f8c5be1e5ebec7d5bd14f71427d1e84f3dd0314c0f7b2291e5b200ac8c7c3b92560405160405180910390a4505050565b606060108054600181600116156101000203166002900480601f0160208091040260200160405190810160405280929190818152602001828054600181600116156101000203166002900480156107ad5780601f10610782576101008083540402835291602001916107ad565b820191906000526020600020905b81548152906001019060200180831161079057829003601f168201915b5050505050905090565b6000809054906101000a900473ffffffffffffffffffffffffffffffffffffffff1673ffffffffffffffffffffffffffffffffffffffff163373ffffffffffffffffffffffffffffffffffffffff1614610846576040517f08c379a000000000000000000000000000000000000000000000000000000000815260040161083d90613337565b60405180910390fd5b80600060146101000a81548160ff021916908315150217905550600060149054906101000a900460ff16156108b9573373ffffffffffffffffffffffffffffffffffffffff167f62e78cea01bee320cd4e420270b5ea74000d11b0c9f74754ebdbfc544b05a25860405160405180910390a25b600060149054906101000a900460ff16610911573373ffffffffffffffffffffffffffffffffffffffff167f5db9ee0a495bf2e6ff9c91a7834c1ba4fdd244a5e8aa4e537bd38aeae4b073aa60405160405180910390a25b50565b6060600f8054600181600116156101000203166002900480601f0160208091040260200160405190810160405280929190818152602001828054600181600116156101000203166002900480156109ac5780601f10610981576101008083540402835291602001916109ac565b820191906000526020600020905b81548152906001019060200180831161098f57829003601f168201915b5050505050905090565b6000600880549050905090565b60008484836040516020016109da9392919061320d565b604051602081830303815290604052805190602001209050600073ffffffffffffffffffffffffffffffffffffffff166015600083815260200190815260200160002060000160009054906101000a900473ffffffffffffffffffffffffffffffffffffffff1673ffffffffffffffffffffffffffffffffffffffff1614610a97576040517f08c379a0000000000000000000000000000000000000000000000000000000008152600401610a8e906133f7565b60405180910390fd5b601360009054906101000a900473ffffffffffffffffffffffffffffffffffffffff1673ffffffffffffffffffffffffffffffffffffffff166343cd76fc84846040518363ffffffff1660e01b8152600401610af4929190613417565b60206040518083038186803b158015610b0c57600080fd5b505afa158015610b20573d6000803e3d6000fd5b505050506040513d601f19601f82011682018060405250610b449190810190612b2e565b610b83576040517f08c379a0000000000000000000000000000000000000000000000000000000008152600401610b7a906133d7565b60405180910390fd5b610b8e858583610e0d565b610b988585610c7e565b505050505050565b610baa338261147c565b610bb357600080fd5b610bbe838383611511565b505050565b610c02828260006040519080825280601f01601f191660200182016040528015610bfc5781602001600182028038833980820191505090505b50610c79565b5050565b6000610c1183610dbd565b8210610c1c57600080fd5b600660008473ffffffffffffffffffffffffffffffffffffffff1673ffffffffffffffffffffffffffffffffffffffff1681526020019081526020016000208281548110610c6657fe5b9060005260206000200154905092915050565b505050565b60008060009054906101000a900473ffffffffffffffffffffffffffffffffffffffff1673ffffffffffffffffffffffffffffffffffffffff163373ffffffffffffffffffffffffffffffffffffffff1614610d0f576040517f08c379a0000000000000000000000000000000000000000000000000000000008152600401610d0690613337565b60405180910390fd5b610d198383611535565b610d2282611556565b6001905092915050565b610d47838383604051806020016040528060008152506110d2565b505050565b6000610d566109b6565b8210610d6157600080fd5b60088281548110610d6e57fe5b90600052602060002001549050919050565b60006002600083815260200190815260200160002060009054906101000a900473ffffffffffffffffffffffffffffffffffffffff169050919050565b6000610e06600460008473ffffffffffffffffffffffffffffffffffffffff1673ffffffffffffffffffffffffffffffffffffffff16815260200190815260200160002061163e565b9050919050565b610e1561248d565b60405180604001604052808573ffffffffffffffffffffffffffffffffffffffff1681526020018481525090506014819080600181540180825580915050906001820390600052602060002090600202016000909192909190915060008201518160000160006101000a81548173ffffffffffffffffffffffffffffffffffffffff021916908373ffffffffffffffffffffffffffffffffffffffff16021790555060208201518160010155505050806015600084815260200190815260200160002060008201518160000160006101000a81548173ffffffffffffffffffffffffffffffffffffffff021916908373ffffffffffffffffffffffffffffffffffffffff160217905550602082015181600101559050507f3a01cc868bdb36c1d9b8a262a8ad25064b23ac175b3f8e4453f1daf8ff6bac0d81600001518260200151604051610f659291906132b1565b60405180910390a150505050565b60008060009054906101000a900473ffffffffffffffffffffffffffffffffffffffff16905090565b3373ffffffffffffffffffffffffffffffffffffffff168273ffffffffffffffffffffffffffffffffffffffff161415610fd557600080fd5b80600560003373ffffffffffffffffffffffffffffffffffffffff1673ffffffffffffffffffffffffffffffffffffffff16815260200190815260200160002060008473ffffffffffffffffffffffffffffffffffffffff1673ffffffffffffffffffffffffffffffffffffffff16815260200190815260200160002060006101000a81548160ff0219169083151502179055508173ffffffffffffffffffffffffffffffffffffffff163373ffffffffffffffffffffffffffffffffffffffff167f17307eab39ab6107e8899845ad3d59bd9653f200f220920489ca2b5937696c31836040516110c691906132da565b60405180910390a35050565b6110dd848484610ba0565b6110e98484848461164c565b6110f257600080fd5b50505050565b606060118054600181600116156101000203166002900480601f0160208091040260200160405190810160405280929190818152602001828054600181600116156101000203166002900480156111905780601f1061116557610100808354040283529160200191611190565b820191906000526020600020905b81548152906001019060200180831161117357829003601f168201915b5050505050905090565b60606111a582611763565b6111ae57600080fd5b601260008381526020019081526020016000208054600181600116156101000203166002900480601f0160208091040260200160405190810160405280929190818152602001828054600181600116156101000203166002900480156112555780601f1061122a57610100808354040283529160200191611255565b820191906000526020600020905b81548152906001019060200180831161123857829003601f168201915b50505050509050919050565b6000600560008473ffffffffffffffffffffffffffffffffffffffff1673ffffffffffffffffffffffffffffffffffffffff16815260200190815260200160002060008373ffffffffffffffffffffffffffffffffffffffff1673ffffffffffffffffffffffffffffffffffffffff16815260200190815260200160002060009054906101000a900460ff16905092915050565b6000809054906101000a900473ffffffffffffffffffffffffffffffffffffffff1673ffffffffffffffffffffffffffffffffffffffff163373ffffffffffffffffffffffffffffffffffffffff1614611384576040517f08c379a000000000000000000000000000000000000000000000000000000000815260040161137b90613337565b60405180910390fd5b600073ffffffffffffffffffffffffffffffffffffffff168173ffffffffffffffffffffffffffffffffffffffff1614156113be57600080fd5b806000806101000a81548173ffffffffffffffffffffffffffffffffffffffff021916908373ffffffffffffffffffffffffffffffffffffffff1602179055508073ffffffffffffffffffffffffffffffffffffffff166000809054906101000a900473ffffffffffffffffffffffffffffffffffffffff1673ffffffffffffffffffffffffffffffffffffffff167f5c486528ec3e3f0ea91181cff8116f02bfa350e03b8b6f12e00765adbb5af85c60405160405180910390a350565b60008061148883610d80565b90508073ffffffffffffffffffffffffffffffffffffffff168473ffffffffffffffffffffffffffffffffffffffff1614806114f757508373ffffffffffffffffffffffffffffffffffffffff166114df8461055a565b73ffffffffffffffffffffffffffffffffffffffff16145b8061150857506115078185611261565b5b91505092915050565b61151c8383836117d5565b6115268382611a0a565b6115308282611ba8565b505050565b61153f8282611c6f565b6115498282611ba8565b61155281611e27565b5050565b61155f81611763565b61156857600080fd5b61161460118054600181600116156101000203166002900480601f0160208091040260200160405190810160405280929190818152602001828054600181600116156101000203166002900480156116015780601f106115d657610100808354040283529160200191611601565b820191906000526020600020905b8154815290600101906020018083116115e457829003601f168201915b505050505061160f83611e73565b611fa0565b60126000838152602001908152602001600020908051906020019061163a9291906124bd565b5050565b600081600001549050919050565b600061166d8473ffffffffffffffffffffffffffffffffffffffff16611fe4565b61167a576001905061175b565b60008473ffffffffffffffffffffffffffffffffffffffff1663150b7a02338887876040518563ffffffff1660e01b81526004016116bb9493929190613265565b602060405180830381600087803b1580156116d557600080fd5b505af11580156116e9573d6000803e3d6000fd5b505050506040513d601f19601f8201168201806040525061170d9190810190612c53565b905063150b7a0260e01b7bffffffffffffffffffffffffffffffffffffffffffffffffffffffff1916817bffffffffffffffffffffffffffffffffffffffffffffffffffffffff1916149150505b949350505050565b6000806002600084815260200190815260200160002060009054906101000a900473ffffffffffffffffffffffffffffffffffffffff169050600073ffffffffffffffffffffffffffffffffffffffff168173ffffffffffffffffffffffffffffffffffffffff161415915050919050565b60006117e082610d80565b90508073ffffffffffffffffffffffffffffffffffffffff168473ffffffffffffffffffffffffffffffffffffffff1614611850576040517f08c379a0000000000000000000000000000000000000000000000000000000008152600401611847906133b7565b60405180910390fd5b600073ffffffffffffffffffffffffffffffffffffffff168373ffffffffffffffffffffffffffffffffffffffff1614156118c0576040517f08c379a00000000000000000000000000000000000000000000000000000000081526004016118b790613317565b60405180910390fd5b6118c98261202f565b611910600460008673ffffffffffffffffffffffffffffffffffffffff1673ffffffffffffffffffffffffffffffffffffffff1681526020019081526020016000206120ed565b826002600084815260200190815260200160002060006101000a81548173ffffffffffffffffffffffffffffffffffffffff021916908373ffffffffffffffffffffffffffffffffffffffff1602179055506119a9600460008573ffffffffffffffffffffffffffffffffffffffff1673ffffffffffffffffffffffffffffffffffffffff168152602001908152602001600020612110565b818373ffffffffffffffffffffffffffffffffffffffff168573ffffffffffffffffffffffffffffffffffffffff167fddf252ad1be2c89b69c2b068fc378daa952ba7f163c4a11628f55a4df523b3ef60405160405180910390a450505050565b6000611a626001600660008673ffffffffffffffffffffffffffffffffffffffff1673ffffffffffffffffffffffffffffffffffffffff1681526020019081526020016000208054905061212690919063ffffffff16565b9050600060076000848152602001908152602001600020549050818114611b4f576000600660008673ffffffffffffffffffffffffffffffffffffffff1673ffffffffffffffffffffffffffffffffffffffff1681526020019081526020016000208381548110611acf57fe5b9060005260206000200154905080600660008773ffffffffffffffffffffffffffffffffffffffff1673ffffffffffffffffffffffffffffffffffffffff1681526020019081526020016000208381548110611b2757fe5b9060005260206000200181905550816007600083815260200190815260200160002081905550505b600660008573ffffffffffffffffffffffffffffffffffffffff1673ffffffffffffffffffffffffffffffffffffffff168152602001908152602001600020805480919060019003611ba1919061253d565b5050505050565b600660008373ffffffffffffffffffffffffffffffffffffffff1673ffffffffffffffffffffffffffffffffffffffff168152602001908152602001600020805490506007600083815260200190815260200160002081905550600660008373ffffffffffffffffffffffffffffffffffffffff1673ffffffffffffffffffffffffffffffffffffffff1681526020019081526020016000208190806001815401808255809150509060018203906000526020600020016000909192909190915055505050565b60001515611c7c82611763565b151514611cbe576040517f08c379a0000000000000000000000000000000000000000000000000000000008152600401611cb590613357565b60405180910390fd5b600073ffffffffffffffffffffffffffffffffffffffff168273ffffffffffffffffffffffffffffffffffffffff161415611d2e576040517f08c379a0000000000000000000000000000000000000000000000000000000008152600401611d2590613377565b60405180910390fd5b816002600083815260200190815260200160002060006101000a81548173ffffffffffffffffffffffffffffffffffffffff021916908373ffffffffffffffffffffffffffffffffffffffff160217905550611dc7600460008473ffffffffffffffffffffffffffffffffffffffff1673ffffffffffffffffffffffffffffffffffffffff168152602001908152602001600020612110565b808273ffffffffffffffffffffffffffffffffffffffff16600073ffffffffffffffffffffffffffffffffffffffff167fddf252ad1be2c89b69c2b068fc378daa952ba7f163c4a11628f55a4df523b3ef60405160405180910390a45050565b6008805490506009600083815260200190815260200160002081905550600881908060018154018082558091505090600182039060005260206000200160009091929091909150555050565b60606000821415611ebb576040518060400160405280600181526020017f30000000000000000000000000000000000000000000000000000000000000008152509050611f9b565b600082905060005b60008214611ee5578080600101915050600a8281611edd57fe5b049150611ec3565b6060816040519080825280601f01601f191660200182016040528015611f1a5781602001600182028038833980820191505090505b50905060006001830390505b60008614611f9357600a8681611f3857fe5b0660300160f81b82828060019003935081518110611f5257fe5b60200101907effffffffffffffffffffffffffffffffffffffffffffffffffffffffffffff1916908160001a905350600a8681611f8b57fe5b049550611f26565b819450505050505b919050565b6060611fdc8383604051806020016040528060008152506040518060200160405280600081525060405180602001604052806000815250612170565b905092915050565b60008060007fc5d2460186f7233c927e7db2dcc703c0e500b653ca82273b7bfad8045d85a47060001b9050833f915080821415801561202657506000801b8214155b92505050919050565b600073ffffffffffffffffffffffffffffffffffffffff166003600083815260200190815260200160002060009054906101000a900473ffffffffffffffffffffffffffffffffffffffff1673ffffffffffffffffffffffffffffffffffffffff16146120ea5760006003600083815260200190815260200160002060006101000a81548173ffffffffffffffffffffffffffffffffffffffff021916908373ffffffffffffffffffffffffffffffffffffffff1602179055505b50565b6121056001826000015461212690919063ffffffff16565b816000018190555050565b6001816000016000828254019250508190555050565b600061216883836040518060400160405280601e81526020017f536166654d6174683a207375627472616374696f6e206f766572666c6f770000815250612432565b905092915050565b6060808690506060869050606086905060608690506060869050606081518351855187518951010101016040519080825280601f01601f1916602001820160405280156121cc5781602001600182028038833980820191505090505b509050606081905060008090506000809050600090505b8851811015612251578881815181106121f857fe5b602001015160f81c60f81b83838060010194508151811061221557fe5b60200101907effffffffffffffffffffffffffffffffffffffffffffffffffffffffffffff1916908160001a90535080806001019150506121e3565b600090505b87518110156122c45787818151811061226b57fe5b602001015160f81c60f81b83838060010194508151811061228857fe5b60200101907effffffffffffffffffffffffffffffffffffffffffffffffffffffffffffff1916908160001a9053508080600101915050612256565b600090505b8651811015612337578681815181106122de57fe5b602001015160f81c60f81b8383806001019450815181106122fb57fe5b60200101907effffffffffffffffffffffffffffffffffffffffffffffffffffffffffffff1916908160001a90535080806001019150506122c9565b600090505b85518110156123aa5785818151811061235157fe5b602001015160f81c60f81b83838060010194508151811061236e57fe5b60200101907effffffffffffffffffffffffffffffffffffffffffffffffffffffffffffff1916908160001a905350808060010191505061233c565b600090505b845181101561241d578481815181106123c457fe5b602001015160f81c60f81b8383806001019450815181106123e157fe5b60200101907effffffffffffffffffffffffffffffffffffffffffffffffffffffffffffff1916908160001a90535080806001019150506123af565b82995050505050505050505095945050505050565b600083831115829061247a576040517f08c379a000000000000000000000000000000000000000000000000000000000815260040161247191906132f5565b60405180910390fd5b5060008385039050809150509392505050565b6040518060400160405280600073ffffffffffffffffffffffffffffffffffffffff168152602001600081525090565b828054600181600116156101000203166002900490600052602060002090601f016020900481019282601f106124fe57805160ff191683800117855561252c565b8280016001018555821561252c579182015b8281111561252b578251825591602001919060010190612510565b5b5090506125399190612569565b5090565b815481835581811115612564578183600052602060002091820191016125639190612569565b5b505050565b61258b91905b8082111561258757600081600090555060010161256f565b5090565b90565b60008135905061259d81613705565b92915050565b600082601f8301126125b457600080fd5b60026125c76125c28261348a565b61345d565b915081838560208402820111156125dd57600080fd5b60005b8381101561260d57816125f38882612895565b8452602084019350602083019250506001810190506125e0565b5050505092915050565b600082601f83011261262857600080fd5b600261263b612636826134ac565b61345d565b9150818385602084028201111561265157600080fd5b60005b8381101561268157816126678882612895565b845260208401935060208301925050600181019050612654565b5050505092915050565b60008135905061269a8161371c565b92915050565b6000815190506126af8161371c565b92915050565b6000813590506126c481613733565b92915050565b6000813590506126d98161374a565b92915050565b6000815190506126ee8161374a565b92915050565b600082601f83011261270557600080fd5b8135612718612713826134ce565b61345d565b9150808252602083016020830185838301111561273457600080fd5b61273f838284613677565b50505092915050565b600082601f83011261275957600080fd5b813561276c612767826134fa565b61345d565b9150808252602083016020830185838301111561278857600080fd5b612793838284613677565b50505092915050565b6000604082840312156127ae57600080fd5b6127b8604061345d565b905060006127c884828501612895565b60008301525060206127dc84828501612895565b60208301525092915050565b6000608082840312156127fa57600080fd5b612804604061345d565b90506000612814848285016125a3565b6000830152506040612828848285016125a3565b60208301525092915050565b6000610100828403121561284757600080fd5b612851606061345d565b905060006128618482850161279c565b6000830152506040612875848285016127e8565b60208301525060c06128898482850161279c565b60408301525092915050565b6000813590506128a481613761565b92915050565b6000602082840312156128bc57600080fd5b60006128ca8482850161258e565b91505092915050565b600080604083850312156128e657600080fd5b60006128f48582860161258e565b92505060206129058582860161258e565b9150509250929050565b60008060006060848603121561292457600080fd5b60006129328682870161258e565b93505060206129438682870161258e565b925050604061295486828701612895565b9150509250925092565b6000806000806080858703121561297457600080fd5b60006129828782880161258e565b94505060206129938782880161258e565b93505060406129a487828801612895565b925050606085013567ffffffffffffffff8111156129c157600080fd5b6129cd878288016126f4565b91505092959194509250565b600080604083850312156129ec57600080fd5b60006129fa8582860161258e565b9250506020612a0b8582860161268b565b9150509250929050565b60008060408385031215612a2857600080fd5b6000612a368582860161258e565b9250506020612a4785828601612895565b9150509250929050565b600080600060608486031215612a6657600080fd5b6000612a748682870161258e565b9350506020612a8586828701612895565b9250506040612a96868287016126b5565b9150509250925092565b6000806000806101808587031215612ab757600080fd5b6000612ac58782880161258e565b9450506020612ad687828801612895565b9350506040612ae787828801612834565b925050610140612af987828801612617565b91505092959194509250565b600060208284031215612b1757600080fd5b6000612b258482850161268b565b91505092915050565b600060208284031215612b4057600080fd5b6000612b4e848285016126a0565b91505092915050565b60008060408385031215612b6a57600080fd5b6000612b78858286016126b5565b925050602083013567ffffffffffffffff811115612b9557600080fd5b612ba185828601612748565b9150509250929050565b600080600060608486031215612bc057600080fd5b6000612bce868287016126b5565b935050602084013567ffffffffffffffff811115612beb57600080fd5b612bf786828701612748565b925050604084013567ffffffffffffffff811115612c1457600080fd5b612c20868287016126f4565b9150509250925092565b600060208284031215612c3c57600080fd5b6000612c4a848285016126ca565b91505092915050565b600060208284031215612c6557600080fd5b6000612c73848285016126df565b91505092915050565b600060208284031215612c8e57600080fd5b6000612c9c84828501612895565b91505092915050565b6000612cb183836131c9565b60208301905092915050565b6000612cc983836131e7565b60208301905092915050565b612cde81613641565b82525050565b612ced816135c3565b82525050565b612d04612cff826135c3565b6136b9565b82525050565b612d1381613545565b612d1d818461358b565b9250612d2882613530565b8060005b83811015612d59578151612d408782612ca5565b9650612d4b83613573565b925050600181019050612d2c565b505050505050565b612d6a81613545565b612d748184613596565b9250612d7f82613530565b8060005b83811015612db0578151612d978782612cbd565b9650612da283613573565b925050600181019050612d83565b505050505050565b612dc18161353a565b612dcb8184613580565b9250612dd682613526565b8060005b83811015612e07578151612dee8782612ca5565b9650612df983613566565b925050600181019050612dda565b505050505050565b612e18816135d5565b82525050565b6000612e2982613550565b612e3381856135a1565b9350612e43818560208601613686565b612e4c816136e7565b840191505092915050565b6000612e628261355b565b612e6c81856135b2565b9350612e7c818560208601613686565b612e85816136e7565b840191505092915050565b6000612e9d602b836135b2565b91507f5468652061646472657373206265696e67207472616e7366657272656420746f60008301527f20697320696e76616c69640000000000000000000000000000000000000000006020830152604082019050919050565b6000612f036027836135b2565b91507f43616c6c6572206973206e6f7420746865206f776e6572206f6620746865206360008301527f6f6e7472616374000000000000000000000000000000000000000000000000006020830152604082019050919050565b6000612f696014836135b2565b91507f546f6b656e20616c7265616479206578697374730000000000000000000000006000830152602082019050919050565b6000612fa96029836135b2565b91507f5468652061646472657373206f662074686520746f6b656e206f776e6572206960008301527f7320696e76616c696400000000000000000000000000000000000000000000006020830152604082019050919050565b600061300f601e836135b2565b91507f596f752061726520746865206f776e6572206f662074686520746f6b656e00006000830152602082019050919050565b600061304f6036836135b2565b91507f4f6e6c792074686520746f6b656e206f776e2063616e207472616e736665722060008301527f6f776e657273686970206f662074686520746f6b656e000000000000000000006020830152604082019050919050565b60006130b5601d836135b2565b91507f536f6c7574696f6e20766572696669636174696f6e206661696c65642e0000006000830152602082019050919050565b60006130f56016836135b2565b91507f536f6c7574696f6e206973206e6f7420756e69717565000000000000000000006000830152602082019050919050565b60408201600082015161313e60008501826131c9565b50602082015161315160208501826131c9565b50505050565b60808201600082015161316d6000850182612db8565b5060208201516131806040850182612db8565b50505050565b6101008201600082015161319d6000850182613128565b5060208201516131b06040850182613157565b5060408201516131c360c0850182613128565b50505050565b6131d281613637565b82525050565b6131e181613637565b82525050565b6131f081613637565b82525050565b61320761320282613637565b6136dd565b82525050565b60006132198286612cf3565b60148201915061322982856131f6565b6020820191506132398284612d61565b604082019150819050949350505050565b600060208201905061325f6000830184612ce4565b92915050565b600060808201905061327a6000830187612cd5565b6132876020830186612ce4565b61329460408301856131d8565b81810360608301526132a68184612e1e565b905095945050505050565b60006040820190506132c66000830185612ce4565b6132d360208301846131d8565b9392505050565b60006020820190506132ef6000830184612e0f565b92915050565b6000602082019050818103600083015261330f8184612e57565b905092915050565b6000602082019050818103600083015261333081612e90565b9050919050565b6000602082019050818103600083015261335081612ef6565b9050919050565b6000602082019050818103600083015261337081612f5c565b9050919050565b6000602082019050818103600083015261339081612f9c565b9050919050565b600060208201905081810360008301526133b081613002565b9050919050565b600060208201905081810360008301526133d081613042565b9050919050565b600060208201905081810360008301526133f0816130a8565b9050919050565b60006020820190508181036000830152613410816130e8565b9050919050565b60006101408201905061342d6000830185613186565b61343b610100830184612d0a565b9392505050565b600060208201905061345760008301846131d8565b92915050565b6000604051905081810181811067ffffffffffffffff8211171561348057600080fd5b8060405250919050565b600067ffffffffffffffff8211156134a157600080fd5b602082029050919050565b600067ffffffffffffffff8211156134c357600080fd5b602082029050919050565b600067ffffffffffffffff8211156134e557600080fd5b601f19601f8301169050602081019050919050565b600067ffffffffffffffff82111561351157600080fd5b601f19601f8301169050602081019050919050565b6000819050919050565b6000819050919050565b600060029050919050565b600060029050919050565b600081519050919050565b600081519050919050565b6000602082019050919050565b6000602082019050919050565b600081905092915050565b600081905092915050565b600081905092915050565b600082825260208201905092915050565b600082825260208201905092915050565b60006135ce82613617565b9050919050565b60008115159050919050565b6000819050919050565b60007fffffffff0000000000000000000000000000000000000000000000000000000082169050919050565b600073ffffffffffffffffffffffffffffffffffffffff82169050919050565b6000819050919050565b600061364c82613653565b9050919050565b600061365e82613665565b9050919050565b600061367082613617565b9050919050565b82818337600083830152505050565b60005b838110156136a4578082015181840152602081019050613689565b838111156136b3576000848401525b50505050565b60006136c4826136cb565b9050919050565b60006136d6826136f8565b9050919050565b6000819050919050565b6000601f19601f8301169050919050565b60008160601b9050919050565b61370e816135c3565b811461371957600080fd5b50565b613725816135d5565b811461373057600080fd5b50565b61373c816135e1565b811461374757600080fd5b50565b613753816135eb565b811461375e57600080fd5b50565b61376a81613637565b811461377557600080fd5b5056fea365627a7a72315820d711646970c841aa427deb38d9bf98e950d9638da319091baec7ceaecd9ded1c6c6578706572696d656e74616cf564736f6c6343000510004068747470733a2f2f73332d75732d776573742d322e616d617a6f6e6177732e636f6d2f756461636974792d626c6f636b636861696e2f63617073746f6e652f",
  "source": "pragma solidity >=0.4.21 <0.6.0;\npragma experimental ABIEncoderV2;\n\nimport \"./ERC721Mintable.sol\";\nimport \"./verifier.sol\";\n\n// TODO define a contract call to the zokrates generated solidity contract <Verifier> or <renamedVerifier>\ncontract SquareVerifier is Verifier {}\n\n// TODO define another contract named SolnSquareVerifier that inherits from your ERC721Mintable class\ncontract SolnSquareVerifier is CustomERC721Token {\n\n  SquareVerifier squareVerifier;\n\n  constructor(address verifierContract) public {\n    squareVerifier = SquareVerifier(verifierContract);\n  }\n\n  // TODO define a solutions struct that can hold an index & an address\n  struct Solution {\n    address to;\n    uint256 tokenId;\n  }\n\n  // TODO define an array of the above struct\n  Solution[] solutionsArray;\n\n  // TODO define a mapping to store unique solutions submitted\n  mapping(bytes32 => Solution) solutionsMapping;\n\n  // TODO Create an event to emit when a solution is added\n  event SolutionAdded(address to, uint256 tokenId);\n\n  // TODO Create a function to add the solutions to the array and emit the event\n  function addSolution(address to, uint256 tokenId, bytes32 key) public {\n    Solution memory solution = Solution({ to: to, tokenId: tokenId });\n\n    // Add solution to the data structures\n    solutionsArray.push(solution);\n    solutionsMapping[key] = solution;\n\n    // Emit the event\n    emit SolutionAdded(solution.to, solution.tokenId);\n  }\n\n  // TODO Create a function to mint new NFT only after the solution has been verified\n  //  - make sure the solution is unique (has not been used before)\n  //  - make sure you handle metadata as well as tokenSupply\n  function mintNFT(address to, uint256 tokenId, SquareVerifier.Proof memory proof, uint[2] memory input) public {\n    \n    // Generate hash to be used as the key\n    bytes32 key = keccak256(abi.encodePacked(to, tokenId, input));\n\n    // Check that key has not been used before\n    require(solutionsMapping[key].to == address(0), \"Solution is not unique\");\n\n    // Verify the proof provided\n    require(squareVerifier.verifyTx(proof, input), \"Solution verification failed.\");    \n\n    // Add solution\n    \n    addSolution(to, tokenId, key);\n    super.mint(to, tokenId);\n  }\n\n}\n\n",
  "sourcePath": "/Users/antoniocunanan/Desktop/udacity/capstone/submission/Blockchain-Capstone/eth-contracts/contracts/SolnSquareVerifier.sol",
  "compiler": {
    "name": "solc",
    "version": "0.5.16+commit.9c3226ce.Emscripten.clang"
  },
  "schemaVersion": "3.4.1",
  "updatedAt": "2021-08-28T20:03:21.725Z",
  "networkType": "ethereum",
  "devdoc": {
    "methods": {
      "isApprovedForAll(address,address)": {
        "details": "Tells whether an operator is approved by a given owner",
        "params": {
          "operator": "operator address which you want to query the approval of",
          "owner": "owner address which you want to query the approval of"
        },
        "return": "bool whether the given operator is approved by the given owner"
      },
      "setApprovalForAll(address,bool)": {
        "details": "Sets or unsets the approval of a given operator An operator is allowed to transfer all tokens of the sender on their behalf",
        "params": {
          "approved": "representing the status of the approval to be set",
          "to": "operator address to set the approval"
        }
      },
      "supportsInterface(bytes4)": {
        "details": "implement supportsInterface(bytes4) using a lookup table"
      },
      "tokenByIndex(uint256)": {
        "details": "Gets the token ID at a given index of all the tokens in this contract Reverts if the index is greater or equal to the total number of tokens",
        "params": {
          "index": "uint256 representing the index to be accessed of the tokens list"
        },
        "return": "uint256 token ID at the given index of the tokens list"
      },
      "tokenOfOwnerByIndex(address,uint256)": {
        "details": "Gets the token ID at a given index of the tokens list of the requested owner",
        "params": {
          "index": "uint256 representing the index to be accessed of the requested tokens list",
          "owner": "address owning the tokens list to be accessed"
        },
        "return": "uint256 token ID at the given index of the tokens list owned by the requested address"
      },
      "totalSupply()": {
        "details": "Gets the total amount of tokens stored by the contract",
        "return": "uint256 representing the total amount of tokens"
      }
    }
  },
  "userdoc": {
    "methods": {}
  }
}