{
  "contractName": "SquareVerifier",
  "abi": [
    {
      "constant": true,
      "inputs": [
        {
          "components": [
            {
              "components": [
                {
                  "internalType": "uint256",
                  "name": "X",
                  "type": "uint256"
                },
                {
                  "internalType": "uint256",
                  "name": "Y",
                  "type": "uint256"
                }
              ],
              "internalType": "struct Pairing.G1Point",
              "name": "a",
              "type": "tuple"
            },
            {
              "components": [
                {
                  "internalType": "uint256[2]",
                  "name": "X",
                  "type": "uint256[2]"
                },
                {
                  "internalType": "uint256[2]",
                  "name": "Y",
                  "type": "uint256[2]"
                }
              ],
              "internalType": "struct Pairing.G2Point",
              "name": "b",
              "type": "tuple"
            },
            {
              "components": [
                {
                  "internalType": "uint256",
                  "name": "X",
                  "type": "uint256"
                },
                {
                  "internalType": "uint256",
                  "name": "Y",
                  "type": "uint256"
                }
              ],
              "internalType": "struct Pairing.G1Point",
              "name": "c",
              "type": "tuple"
            }
          ],
          "internalType": "struct Verifier.Proof",
          "name": "proof",
          "type": "tuple"
        },
        {
          "internalType": "uint256[2]",
          "name": "input",
          "type": "uint256[2]"
        }
      ],
      "name": "verifyTx",
      "outputs": [
        {
          "internalType": "bool",
          "name": "r",
          "type": "bool"
        }
      ],
      "payable": false,
      "stateMutability": "view",
      "type": "function"
    }
  ],
  "bytecode": "0x608060405234801561001057600080fd5b506110c1806100206000396000f3fe608060405234801561001057600080fd5b506004361061002b5760003560e01c806343cd76fc14610030575b600080fd5b61004a60048036036100459190810190610f78565b610060565b6040516100579190610fc5565b60405180910390f35b6000606060026040519080825280602002602001820160405280156100945781602001602082028038833980820191505090505b50905060008090505b60028110156100dc578381600281106100b257fe5b60200201518282815181106100c357fe5b602002602001018181525050808060010191505061009d565b5060006100e98286610105565b14156100f95760019150506100ff565b60009150505b92915050565b6000807f30644e72e131a029b85045b68181585d2833e84879b9709143e1f593f00000019050610133610c59565b61013b610277565b905080608001515160018651011461015257600080fd5b61015a610ca0565b6040518060400160405280600081526020016000815250905060008090505b86518110156101f0578387828151811061018f57fe5b6020026020010151106101a157600080fd5b6101e1826101dc856080015160018501815181106101bb57fe5b60200260200101518a85815181106101cf57fe5b60200260200101516106c5565b610757565b91508080600101915050610179565b5061021381836080015160008151811061020657fe5b6020026020010151610757565b90506102598560000151866020015161022b84610808565b856040015161023d8a60400151610808565b876060015161024f8960000151610808565b89602001516108a2565b6102695760019350505050610271565b600093505050505b92915050565b61027f610c59565b60405180604001604052807f10eeaaa3785190270db0740f22a214167341f793e91b7e73a3f5169748e44f7c81526020017f21ca4e555732cdc48a0f2e713490627474377329a8ff33c586d078839ab01e718152508160000181905250604051806040016040528060405180604001604052807f15f4722af01057f52d3f22c5a09817008764588f54625ead72cd4c85ac75e9ed81526020017f02abf9026fe71675aa3e66234ca9ccd2a2e3d75e883d0bec6f317f7993ffa5f9815250815260200160405180604001604052807f11cc6aa4600aedca318f4375ffdf20325dfc49a0f47010f38b08465caa7e729c81526020017f02194524b4c0ae0696e552b00700f89ec27959cacaf795965adbebf5e507be018152508152508160200181905250604051806040016040528060405180604001604052807f252d3419309ecf506ffec4e90b3b72f3034464ec8742ea006daf99589b73660881526020017f243aee55aec88de403adb06d20b18aa6f02438166f19c7f6c99e50b16b9f05e4815250815260200160405180604001604052807f0f4cb6ddc1cd9b8b5a4756069b277dffcc00c338967b212594dc75452bbbdb1d81526020017f20815944e491d300fbcb9459add13d592861093f4ddac899787fc06564c816408152508152508160400181905250604051806040016040528060405180604001604052807f24e1dc771125022356f700e964afd133bd57ca80c51d5775a0b81d65849c45b681526020017f18c4b5e7835dc57cea78782a3b006c857f406bbe25dc42a2db46c6d7d31a25d2815250815260200160405180604001604052807f2725b76c2806c718b078ba68b36ded3028f660592494d7d3e9f352ededf1a6a481526020017f07e26262da4a731bd5c64b9faf5a53444d888a7d0e9730614d6cbb7b244029978152508152508160600181905250600360405190808252806020026020018201604052801561056657816020015b610553610cba565b81526020019060019003908161054b5790505b50816080018190525060405180604001604052807f27c44b3b446ce51709ff3594f12849feabfd543de6a180efb2fa9357078b9cbe81526020017f2a677d31e219285be9d613d31fd0fe065368861da8863061b08219d1f24c301e81525081608001516000815181106105d557fe5b602002602001018190525060405180604001604052807f044eb828ce51694c6e83a36195414877cb0679c6a16c1ea683f31e0d0a280f2281526020017f13712a02c2debe652a8dd9cdc359f717f884a3b397e2a2964f8c6970afd4ac31815250816080015160018151811061064657fe5b602002602001018190525060405180604001604052807f0f69387d869b013a3f7a5446afaeb7e30ac254073c45d803364b129e2741893481526020017f2dd961ec3201378b786ee7bc94f0940aa1c12da9e1b99ec58dff135e6d86bd8981525081608001516002815181106106b757fe5b602002602001018190525090565b6106cd610ca0565b6106d5610cd4565b8360000151816000600381106106e757fe5b60200201818152505083602001518160016003811061070257fe5b602002018181525050828160026003811061071957fe5b602002018181525050600060608360808460076107d05a03fa9050806000811461074257610744565bfe5b508061074f57600080fd5b505092915050565b61075f610ca0565b610767610cf6565b83600001518160006004811061077957fe5b60200201818152505083602001518160016004811061079457fe5b6020020181815250508260000151816002600481106107af57fe5b6020020181815250508260200151816003600481106107ca57fe5b602002018181525050600060608360c08460066107d05a03fa905080600081146107f3576107f5565bfe5b508061080057600080fd5b505092915050565b610810610ca0565b60007f30644e72e131a029b85045b68181585d97816a916871ca8d3c208c16d87cfd4790506000836000015114801561084d575060008360200151145b1561087157604051806040016040528060008152602001600081525091505061089d565b6040518060400160405280846000015181526020018285602001518161089357fe5b0683038152509150505b919050565b6000606060046040519080825280602002602001820160405280156108e157816020015b6108ce610cba565b8152602001906001900390816108c65790505b5090506060600460405190808252806020026020018201604052801561092157816020015b61090e610d18565b8152602001906001900390816109065790505b5090508a8260008151811061093257fe5b6020026020010181905250888260018151811061094b57fe5b6020026020010181905250868260028151811061096457fe5b6020026020010181905250848260038151811061097d57fe5b6020026020010181905250898160008151811061099657fe5b602002602001018190525087816001815181106109af57fe5b602002602001018190525085816002815181106109c857fe5b602002602001018190525083816003815181106109e157fe5b60200260200101819052506109f68282610a06565b9250505098975050505050505050565b60008151835114610a1657600080fd5b6000835190506000600682029050606081604051908082528060200260200182016040528015610a555781602001602082028038833980820191505090505b50905060008090505b83811015610bfb57868181518110610a7257fe5b602002602001015160000151826000600684020181518110610a9057fe5b602002602001018181525050868181518110610aa857fe5b602002602001015160200151826001600684020181518110610ac657fe5b602002602001018181525050858181518110610ade57fe5b602002602001015160000151600160028110610af657fe5b6020020151826002600684020181518110610b0d57fe5b602002602001018181525050858181518110610b2557fe5b602002602001015160000151600060028110610b3d57fe5b6020020151826003600684020181518110610b5457fe5b602002602001018181525050858181518110610b6c57fe5b602002602001015160200151600160028110610b8457fe5b6020020151826004600684020181518110610b9b57fe5b602002602001018181525050858181518110610bb357fe5b602002602001015160200151600060028110610bcb57fe5b6020020151826005600684020181518110610be257fe5b6020026020010181815250508080600101915050610a5e565b50610c04610d3e565b6000602082602086026020860160086107d05a03fa90508060008114610c2957610c2b565bfe5b5080610c3657600080fd5b600082600060018110610c4557fe5b602002015114159550505050505092915050565b6040518060a00160405280610c6c610cba565b8152602001610c79610d18565b8152602001610c86610d18565b8152602001610c93610d18565b8152602001606081525090565b604051806040016040528060008152602001600081525090565b604051806040016040528060008152602001600081525090565b6040518060600160405280600390602082028038833980820191505090505090565b6040518060800160405280600490602082028038833980820191505090505090565b6040518060400160405280610d2b610d60565b8152602001610d38610d60565b81525090565b6040518060200160405280600190602082028038833980820191505090505090565b6040518060400160405280600290602082028038833980820191505090505090565b600082601f830112610d9357600080fd5b6002610da6610da18261100d565b610fe0565b91508183856020840282011115610dbc57600080fd5b60005b83811015610dec5781610dd28882610f63565b845260208401935060208301925050600181019050610dbf565b5050505092915050565b600082601f830112610e0757600080fd5b6002610e1a610e158261102f565b610fe0565b91508183856020840282011115610e3057600080fd5b60005b83811015610e605781610e468882610f63565b845260208401935060208301925050600181019050610e33565b5050505092915050565b600060408284031215610e7c57600080fd5b610e866040610fe0565b90506000610e9684828501610f63565b6000830152506020610eaa84828501610f63565b60208301525092915050565b600060808284031215610ec857600080fd5b610ed26040610fe0565b90506000610ee284828501610d82565b6000830152506040610ef684828501610d82565b60208301525092915050565b60006101008284031215610f1557600080fd5b610f1f6060610fe0565b90506000610f2f84828501610e6a565b6000830152506040610f4384828501610eb6565b60208301525060c0610f5784828501610e6a565b60408301525092915050565b600081359050610f7281611067565b92915050565b6000806101408385031215610f8c57600080fd5b6000610f9a85828601610f02565b925050610100610fac85828601610df6565b9150509250929050565b610fbf81611051565b82525050565b6000602082019050610fda6000830184610fb6565b92915050565b6000604051905081810181811067ffffffffffffffff8211171561100357600080fd5b8060405250919050565b600067ffffffffffffffff82111561102457600080fd5b602082029050919050565b600067ffffffffffffffff82111561104657600080fd5b602082029050919050565b60008115159050919050565b6000819050919050565b6110708161105d565b811461107b57600080fd5b5056fea365627a7a72315820cb318fd6883b9c7b3906c3c6304e497b4d100bf3cf4ed2be6b246a9134829dc66c6578706572696d656e74616cf564736f6c63430005100040",
  "source": "pragma solidity >=0.4.21 <0.6.0;\npragma experimental ABIEncoderV2;\n\nimport \"./ERC721Mintable.sol\";\nimport \"./verifier.sol\";\n\n// TODO define a contract call to the zokrates generated solidity contract <Verifier> or <renamedVerifier>\ncontract SquareVerifier is Verifier {}\n\n// TODO define another contract named SolnSquareVerifier that inherits from your ERC721Mintable class\ncontract SolnSquareVerifier is CustomERC721Token {\n\n  SquareVerifier squareVerifier;\n\n  constructor(address verifierContract) public {\n    squareVerifier = SquareVerifier(verifierContract);\n  }\n\n  // TODO define a solutions struct that can hold an index & an address\n  struct Solution {\n    address to;\n    uint256 tokenId;\n  }\n\n  // TODO define an array of the above struct\n  Solution[] solutionsArray;\n\n  // TODO define a mapping to store unique solutions submitted\n  mapping(bytes32 => Solution) solutionsMapping;\n\n  // TODO Create an event to emit when a solution is added\n  event SolutionAdded(address to, uint256 tokenId);\n\n  // TODO Create a function to add the solutions to the array and emit the event\n  function addSolution(address to, uint256 tokenId, bytes32 key) public {\n    Solution memory solution = Solution({ to: to, tokenId: tokenId });\n\n    // Add solution to the data structures\n    solutionsArray.push(solution);\n    solutionsMapping[key] = solution;\n\n    // Emit the event\n    emit SolutionAdded(solution.to, solution.tokenId);\n  }\n\n  // TODO Create a function to mint new NFT only after the solution has been verified\n  //  - make sure the solution is unique (has not been used before)\n  //  - make sure you handle metadata as well as tokenSupply\n  function mintNFT(address to, uint256 tokenId, SquareVerifier.Proof memory proof, uint[2] memory input) public {\n    \n    // Generate hash to be used as the key\n    bytes32 key = keccak256(abi.encodePacked(to, tokenId, input));\n\n    // Check that key has not been used before\n    require(solutionsMapping[key].to == address(0), \"Solution is not unique\");\n\n    // Verify the proof provided\n    require(squareVerifier.verifyTx(proof, input), \"Solution verification failed.\");    \n\n    // Add solution\n    \n    addSolution(to, tokenId, key);\n    super.mint(to, tokenId);\n  }\n\n}\n\n",
  "sourcePath": "/Users/antoniocunanan/Desktop/udacity/capstone/submission/Blockchain-Capstone/eth-contracts/contracts/SolnSquareVerifier.sol",
  "compiler": {
    "name": "solc",
    "version": "0.5.16+commit.9c3226ce.Emscripten.clang"
  },
  "schemaVersion": "3.4.1",
  "updatedAt": "2021-08-28T19:19:10.937Z",
  "devdoc": {
    "methods": {}
  },
  "userdoc": {
    "methods": {}
  }
}